{
  "contractName": "ExerciceSolution",
  "abi": [
    {
      "inputs": [
        {
          "internalType": "string",
          "name": "name_",
          "type": "string"
        },
        {
          "internalType": "string",
          "name": "symbol_",
          "type": "string"
        },
        {
          "internalType": "address",
          "name": "to_",
          "type": "address"
        },
        {
          "internalType": "uint256",
          "name": "tokenid_",
          "type": "uint256"
        }
      ],
      "stateMutability": "nonpayable",
      "type": "constructor"
    },
    {
      "anonymous": false,
      "inputs": [
        {
          "indexed": true,
          "internalType": "address",
          "name": "owner",
          "type": "address"
        },
        {
          "indexed": true,
          "internalType": "address",
          "name": "approved",
          "type": "address"
        },
        {
          "indexed": true,
          "internalType": "uint256",
          "name": "tokenId",
          "type": "uint256"
        }
      ],
      "name": "Approval",
      "type": "event"
    },
    {
      "anonymous": false,
      "inputs": [
        {
          "indexed": true,
          "internalType": "address",
          "name": "owner",
          "type": "address"
        },
        {
          "indexed": true,
          "internalType": "address",
          "name": "operator",
          "type": "address"
        },
        {
          "indexed": false,
          "internalType": "bool",
          "name": "approved",
          "type": "bool"
        }
      ],
      "name": "ApprovalForAll",
      "type": "event"
    },
    {
      "anonymous": false,
      "inputs": [
        {
          "indexed": true,
          "internalType": "address",
          "name": "from",
          "type": "address"
        },
        {
          "indexed": true,
          "internalType": "address",
          "name": "to",
          "type": "address"
        },
        {
          "indexed": true,
          "internalType": "uint256",
          "name": "tokenId",
          "type": "uint256"
        }
      ],
      "name": "Transfer",
      "type": "event"
    },
    {
      "inputs": [
        {
          "internalType": "uint256",
          "name": "",
          "type": "uint256"
        }
      ],
      "name": "alive",
      "outputs": [
        {
          "internalType": "bool",
          "name": "",
          "type": "bool"
        }
      ],
      "stateMutability": "view",
      "type": "function",
      "constant": true
    },
    {
      "inputs": [],
      "name": "animalCounter",
      "outputs": [
        {
          "internalType": "uint256",
          "name": "",
          "type": "uint256"
        }
      ],
      "stateMutability": "view",
      "type": "function",
      "constant": true
    },
    {
      "inputs": [
        {
          "internalType": "address",
          "name": "to",
          "type": "address"
        },
        {
          "internalType": "uint256",
          "name": "tokenId",
          "type": "uint256"
        }
      ],
      "name": "approve",
      "outputs": [],
      "stateMutability": "nonpayable",
      "type": "function"
    },
    {
      "inputs": [
        {
          "internalType": "uint256",
          "name": "",
          "type": "uint256"
        }
      ],
      "name": "authorizedBreederToReproduce",
      "outputs": [
        {
          "internalType": "address",
          "name": "",
          "type": "address"
        }
      ],
      "stateMutability": "view",
      "type": "function",
      "constant": true
    },
    {
      "inputs": [
        {
          "internalType": "address",
          "name": "owner",
          "type": "address"
        }
      ],
      "name": "balanceOf",
      "outputs": [
        {
          "internalType": "uint256",
          "name": "",
          "type": "uint256"
        }
      ],
      "stateMutability": "view",
      "type": "function",
      "constant": true
    },
    {
      "inputs": [],
      "name": "baseURI",
      "outputs": [
        {
          "internalType": "string",
          "name": "",
          "type": "string"
        }
      ],
      "stateMutability": "view",
      "type": "function",
      "constant": true
    },
    {
      "inputs": [
        {
          "internalType": "address",
          "name": "",
          "type": "address"
        }
      ],
      "name": "breeders",
      "outputs": [
        {
          "internalType": "bool",
          "name": "",
          "type": "bool"
        }
      ],
      "stateMutability": "view",
      "type": "function",
      "constant": true
    },
    {
      "inputs": [
        {
          "internalType": "uint256",
          "name": "",
          "type": "uint256"
        }
      ],
      "name": "canReproduce",
      "outputs": [
        {
          "internalType": "bool",
          "name": "",
          "type": "bool"
        }
      ],
      "stateMutability": "view",
      "type": "function",
      "constant": true
    },
    {
      "inputs": [
        {
          "internalType": "uint256",
          "name": "",
          "type": "uint256"
        }
      ],
      "name": "forSale",
      "outputs": [
        {
          "internalType": "bool",
          "name": "",
          "type": "bool"
        }
      ],
      "stateMutability": "view",
      "type": "function",
      "constant": true
    },
    {
      "inputs": [
        {
          "internalType": "uint256",
          "name": "tokenId",
          "type": "uint256"
        }
      ],
      "name": "getApproved",
      "outputs": [
        {
          "internalType": "address",
          "name": "",
          "type": "address"
        }
      ],
      "stateMutability": "view",
      "type": "function",
      "constant": true
    },
    {
      "inputs": [
        {
          "internalType": "address",
          "name": "owner",
          "type": "address"
        },
        {
          "internalType": "address",
          "name": "operator",
          "type": "address"
        }
      ],
      "name": "isApprovedForAll",
      "outputs": [
        {
          "internalType": "bool",
          "name": "",
          "type": "bool"
        }
      ],
      "stateMutability": "view",
      "type": "function",
      "constant": true
    },
    {
      "inputs": [
        {
          "internalType": "uint256",
          "name": "",
          "type": "uint256"
        }
      ],
      "name": "legs",
      "outputs": [
        {
          "internalType": "uint256",
          "name": "",
          "type": "uint256"
        }
      ],
      "stateMutability": "view",
      "type": "function",
      "constant": true
    },
    {
      "inputs": [
        {
          "internalType": "uint256",
          "name": "",
          "type": "uint256"
        }
      ],
      "name": "name",
      "outputs": [
        {
          "internalType": "string",
          "name": "",
          "type": "string"
        }
      ],
      "stateMutability": "view",
      "type": "function",
      "constant": true
    },
    {
      "inputs": [],
      "name": "name",
      "outputs": [
        {
          "internalType": "string",
          "name": "",
          "type": "string"
        }
      ],
      "stateMutability": "view",
      "type": "function",
      "constant": true
    },
    {
      "inputs": [
        {
          "internalType": "uint256",
          "name": "tokenId",
          "type": "uint256"
        }
      ],
      "name": "ownerOf",
      "outputs": [
        {
          "internalType": "address",
          "name": "",
          "type": "address"
        }
      ],
      "stateMutability": "view",
      "type": "function",
      "constant": true
    },
    {
      "inputs": [
        {
          "internalType": "uint256",
          "name": "",
          "type": "uint256"
        }
      ],
      "name": "parent1",
      "outputs": [
        {
          "internalType": "uint256",
          "name": "",
          "type": "uint256"
        }
      ],
      "stateMutability": "view",
      "type": "function",
      "constant": true
    },
    {
      "inputs": [
        {
          "internalType": "uint256",
          "name": "",
          "type": "uint256"
        }
      ],
      "name": "parent2",
      "outputs": [
        {
          "internalType": "uint256",
          "name": "",
          "type": "uint256"
        }
      ],
      "stateMutability": "view",
      "type": "function",
      "constant": true
    },
    {
      "inputs": [
        {
          "internalType": "uint256",
          "name": "",
          "type": "uint256"
        }
      ],
      "name": "price",
      "outputs": [
        {
          "internalType": "uint256",
          "name": "",
          "type": "uint256"
        }
      ],
      "stateMutability": "view",
      "type": "function",
      "constant": true
    },
    {
      "inputs": [
        {
          "internalType": "uint256",
          "name": "",
          "type": "uint256"
        }
      ],
      "name": "reproductionPrice",
      "outputs": [
        {
          "internalType": "uint256",
          "name": "",
          "type": "uint256"
        }
      ],
      "stateMutability": "view",
      "type": "function",
      "constant": true
    },
    {
      "inputs": [
        {
          "internalType": "address",
          "name": "from",
          "type": "address"
        },
        {
          "internalType": "address",
          "name": "to",
          "type": "address"
        },
        {
          "internalType": "uint256",
          "name": "tokenId",
          "type": "uint256"
        }
      ],
      "name": "safeTransferFrom",
      "outputs": [],
      "stateMutability": "nonpayable",
      "type": "function"
    },
    {
      "inputs": [
        {
          "internalType": "address",
          "name": "from",
          "type": "address"
        },
        {
          "internalType": "address",
          "name": "to",
          "type": "address"
        },
        {
          "internalType": "uint256",
          "name": "tokenId",
          "type": "uint256"
        },
        {
          "internalType": "bytes",
          "name": "_data",
          "type": "bytes"
        }
      ],
      "name": "safeTransferFrom",
      "outputs": [],
      "stateMutability": "nonpayable",
      "type": "function"
    },
    {
      "inputs": [
        {
          "internalType": "address",
          "name": "operator",
          "type": "address"
        },
        {
          "internalType": "bool",
          "name": "approved",
          "type": "bool"
        }
      ],
      "name": "setApprovalForAll",
      "outputs": [],
      "stateMutability": "nonpayable",
      "type": "function"
    },
    {
      "inputs": [
        {
          "internalType": "uint256",
          "name": "",
          "type": "uint256"
        }
      ],
      "name": "sex",
      "outputs": [
        {
          "internalType": "uint256",
          "name": "",
          "type": "uint256"
        }
      ],
      "stateMutability": "view",
      "type": "function",
      "constant": true
    },
    {
      "inputs": [
        {
          "internalType": "bytes4",
          "name": "interfaceId",
          "type": "bytes4"
        }
      ],
      "name": "supportsInterface",
      "outputs": [
        {
          "internalType": "bool",
          "name": "",
          "type": "bool"
        }
      ],
      "stateMutability": "view",
      "type": "function",
      "constant": true
    },
    {
      "inputs": [],
      "name": "symbol",
      "outputs": [
        {
          "internalType": "string",
          "name": "",
          "type": "string"
        }
      ],
      "stateMutability": "view",
      "type": "function",
      "constant": true
    },
    {
      "inputs": [
        {
          "internalType": "uint256",
          "name": "index",
          "type": "uint256"
        }
      ],
      "name": "tokenByIndex",
      "outputs": [
        {
          "internalType": "uint256",
          "name": "",
          "type": "uint256"
        }
      ],
      "stateMutability": "view",
      "type": "function",
      "constant": true
    },
    {
      "inputs": [
        {
          "internalType": "address",
          "name": "owner",
          "type": "address"
        },
        {
          "internalType": "uint256",
          "name": "index",
          "type": "uint256"
        }
      ],
      "name": "tokenOfOwnerByIndex",
      "outputs": [
        {
          "internalType": "uint256",
          "name": "",
          "type": "uint256"
        }
      ],
      "stateMutability": "view",
      "type": "function",
      "constant": true
    },
    {
      "inputs": [
        {
          "internalType": "uint256",
          "name": "tokenId",
          "type": "uint256"
        }
      ],
      "name": "tokenURI",
      "outputs": [
        {
          "internalType": "string",
          "name": "",
          "type": "string"
        }
      ],
      "stateMutability": "view",
      "type": "function",
      "constant": true
    },
    {
      "inputs": [],
      "name": "totalSupply",
      "outputs": [
        {
          "internalType": "uint256",
          "name": "",
          "type": "uint256"
        }
      ],
      "stateMutability": "view",
      "type": "function",
      "constant": true
    },
    {
      "inputs": [
        {
          "internalType": "address",
          "name": "from",
          "type": "address"
        },
        {
          "internalType": "address",
          "name": "to",
          "type": "address"
        },
        {
          "internalType": "uint256",
          "name": "tokenId",
          "type": "uint256"
        }
      ],
      "name": "transferFrom",
      "outputs": [],
      "stateMutability": "nonpayable",
      "type": "function"
    },
    {
      "inputs": [
        {
          "internalType": "uint256",
          "name": "",
          "type": "uint256"
        }
      ],
      "name": "wings",
      "outputs": [
        {
          "internalType": "bool",
          "name": "",
          "type": "bool"
        }
      ],
      "stateMutability": "view",
      "type": "function",
      "constant": true
    },
    {
      "inputs": [
        {
          "internalType": "address",
          "name": "account",
          "type": "address"
        }
      ],
      "name": "isBreeder",
      "outputs": [
        {
          "internalType": "bool",
          "name": "",
          "type": "bool"
        }
      ],
      "stateMutability": "nonpayable",
      "type": "function"
    },
    {
      "inputs": [],
      "name": "registrationPrice",
      "outputs": [
        {
          "internalType": "uint256",
          "name": "",
          "type": "uint256"
        }
      ],
      "stateMutability": "view",
      "type": "function",
      "constant": true
    },
    {
      "inputs": [],
      "name": "registerMeAsBreeder",
      "outputs": [],
      "stateMutability": "payable",
      "type": "function",
      "payable": true
    },
    {
      "inputs": [
        {
          "internalType": "uint256",
          "name": "_sex",
          "type": "uint256"
        },
        {
          "internalType": "uint256",
          "name": "_legs",
          "type": "uint256"
        },
        {
          "internalType": "bool",
          "name": "_wings",
          "type": "bool"
        },
        {
          "internalType": "string",
          "name": "_name",
          "type": "string"
        },
        {
          "internalType": "address",
          "name": "_to",
          "type": "address"
        }
      ],
      "name": "declareAnimalTo",
      "outputs": [],
      "stateMutability": "nonpayable",
      "type": "function"
    },
    {
      "inputs": [
        {
          "internalType": "uint256",
          "name": "_sex",
          "type": "uint256"
        },
        {
          "internalType": "uint256",
          "name": "_legs",
          "type": "uint256"
        },
        {
          "internalType": "bool",
          "name": "_wings",
          "type": "bool"
        },
        {
          "internalType": "string",
          "name": "_name",
          "type": "string"
        }
      ],
      "name": "declareAnimal",
      "outputs": [
        {
          "internalType": "uint256",
          "name": "",
          "type": "uint256"
        }
      ],
      "stateMutability": "nonpayable",
      "type": "function"
    },
    {
      "inputs": [],
      "name": "getLastAnimalNumber",
      "outputs": [
        {
          "internalType": "uint256",
          "name": "",
          "type": "uint256"
        }
      ],
      "stateMutability": "view",
      "type": "function",
      "constant": true
    },
    {
      "inputs": [
        {
          "internalType": "uint256",
          "name": "animalNumber",
          "type": "uint256"
        }
      ],
      "name": "getAnimalCharacteristics",
      "outputs": [
        {
          "internalType": "string",
          "name": "_name",
          "type": "string"
        },
        {
          "internalType": "bool",
          "name": "_wings",
          "type": "bool"
        },
        {
          "internalType": "uint256",
          "name": "_legs",
          "type": "uint256"
        },
        {
          "internalType": "uint256",
          "name": "_sex",
          "type": "uint256"
        }
      ],
      "stateMutability": "view",
      "type": "function",
      "constant": true
    },
    {
      "inputs": [
        {
          "internalType": "uint256",
          "name": "animalNumber",
          "type": "uint256"
        }
      ],
      "name": "declareDeadAnimal",
      "outputs": [],
      "stateMutability": "nonpayable",
      "type": "function"
    },
    {
      "inputs": [
        {
          "internalType": "uint256",
          "name": "animalNumber",
          "type": "uint256"
        }
      ],
      "name": "isAnimalForSale",
      "outputs": [
        {
          "internalType": "bool",
          "name": "",
          "type": "bool"
        }
      ],
      "stateMutability": "view",
      "type": "function",
      "constant": true
    },
    {
      "inputs": [
        {
          "internalType": "uint256",
          "name": "animalNumber",
          "type": "uint256"
        }
      ],
      "name": "animalPrice",
      "outputs": [
        {
          "internalType": "uint256",
          "name": "",
          "type": "uint256"
        }
      ],
      "stateMutability": "view",
      "type": "function",
      "constant": true
    },
    {
      "inputs": [
        {
          "internalType": "uint256",
          "name": "animalNumber",
          "type": "uint256"
        }
      ],
      "name": "buyAnimal",
      "outputs": [],
      "stateMutability": "payable",
      "type": "function",
      "payable": true
    },
    {
      "inputs": [
        {
          "internalType": "uint256",
          "name": "animalNumber",
          "type": "uint256"
        },
        {
          "internalType": "uint256",
          "name": "_price",
          "type": "uint256"
        }
      ],
      "name": "offerForSale",
      "outputs": [],
      "stateMutability": "nonpayable",
      "type": "function"
    },
    {
      "inputs": [
        {
          "internalType": "uint256",
          "name": "_sex",
          "type": "uint256"
        },
        {
          "internalType": "uint256",
          "name": "_legs",
          "type": "uint256"
        },
        {
          "internalType": "bool",
          "name": "_wings",
          "type": "bool"
        },
        {
          "internalType": "string",
          "name": "_name",
          "type": "string"
        },
        {
          "internalType": "uint256",
          "name": "_parent1",
          "type": "uint256"
        },
        {
          "internalType": "uint256",
          "name": "_parent2",
          "type": "uint256"
        }
      ],
      "name": "declareAnimalWithParents",
      "outputs": [
        {
          "internalType": "uint256",
          "name": "",
          "type": "uint256"
        }
      ],
      "stateMutability": "nonpayable",
      "type": "function"
    },
    {
      "inputs": [
        {
          "internalType": "uint256",
          "name": "animalNumber",
          "type": "uint256"
        }
      ],
      "name": "getParents",
      "outputs": [
        {
          "internalType": "uint256",
          "name": "p1",
          "type": "uint256"
        },
        {
          "internalType": "uint256",
          "name": "p2",
          "type": "uint256"
        }
      ],
      "stateMutability": "view",
      "type": "function",
      "constant": true
    },
    {
      "inputs": [
        {
          "internalType": "uint256",
          "name": "animalNumber",
          "type": "uint256"
        },
        {
          "internalType": "uint256",
          "name": "priceOfReproduction",
          "type": "uint256"
        }
      ],
      "name": "offerForReproduction",
      "outputs": [
        {
          "internalType": "uint256",
          "name": "",
          "type": "uint256"
        }
      ],
      "stateMutability": "nonpayable",
      "type": "function"
    },
    {
      "inputs": [
        {
          "internalType": "uint256",
          "name": "animalNumber",
          "type": "uint256"
        }
      ],
      "name": "payForReproduction",
      "outputs": [],
      "stateMutability": "payable",
      "type": "function",
      "payable": true
    }
  ],
  "bytecode": "0x608060405260026017553480156200001657600080fd5b50604051620054f8380380620054f8833981810160405260808110156200003c57600080fd5b81019080805160405193929190846401000000008211156200005d57600080fd5b838201915060208201858111156200007457600080fd5b82518660018202830111640100000000821117156200009257600080fd5b8083526020830192505050908051906020019080838360005b83811015620000c8578082015181840152602081019050620000ab565b50505050905090810190601f168015620000f65780820380516001836020036101000a031916815260200191505b50604052602001805160405193929190846401000000008211156200011a57600080fd5b838201915060208201858111156200013157600080fd5b82518660018202830111640100000000821117156200014f57600080fd5b8083526020830192505050908051906020019080838360005b838110156200018557808201518184015260208101905062000168565b50505050905090810190601f168015620001b35780820380516001836020036101000a031916815260200191505b5060405260200180519060200190929190805190602001909291905050508383620001eb6301ffc9a760e01b6200028360201b60201c565b816006908051906020019062000203929190620007e9565b5080600790805190602001906200021c929190620007e9565b50620002356380ac58cd60e01b6200028360201b60201c565b6200024d635b5e139f60e01b6200028360201b60201c565b6200026563780e9d6360e01b6200028360201b60201c565b50506200027982826200038c60201b60201c565b5050505062000898565b63ffffffff60e01b817bffffffffffffffffffffffffffffffffffffffffffffffffffffffff1916141562000320576040517f08c379a000000000000000000000000000000000000000000000000000000000815260040180806020018281038252601c8152602001807f4552433136353a20696e76616c696420696e746572666163652069640000000081525060200191505060405180910390fd5b6001600080837bffffffffffffffffffffffffffffffffffffffffffffffffffffffff19167bffffffffffffffffffffffffffffffffffffffffffffffffffffffff1916815260200190815260200160002060006101000a81548160ff02191690831515021790555050565b600073ffffffffffffffffffffffffffffffffffffffff168273ffffffffffffffffffffffffffffffffffffffff16141562000430576040517f08c379a00000000000000000000000000000000000000000000000000000000081526004018080602001828103825260208152602001807f4552433732313a206d696e7420746f20746865207a65726f206164647265737381525060200191505060405180910390fd5b6200044181620005a060201b60201c565b15620004b5576040517f08c379a000000000000000000000000000000000000000000000000000000000815260040180806020018281038252601c8152602001807f4552433732313a20746f6b656e20616c7265616479206d696e7465640000000081525060200191505060405180910390fd5b620004c960008383620005c460201b60201c565b6200052181600160008573ffffffffffffffffffffffffffffffffffffffff1673ffffffffffffffffffffffffffffffffffffffff168152602001908152602001600020620005c960201b62003d8f1790919060201c565b506200053f81836002620005eb60201b62003da9179092919060201c565b50808273ffffffffffffffffffffffffffffffffffffffff16600073ffffffffffffffffffffffffffffffffffffffff167fddf252ad1be2c89b69c2b068fc378daa952ba7f163c4a11628f55a4df523b3ef60405160405180910390a45050565b6000620005bd8260026200062860201b62003d451790919060201c565b9050919050565b505050565b6000620005e3836000018360001b6200064a60201b60201c565b905092915050565b60006200061f846000018460001b8473ffffffffffffffffffffffffffffffffffffffff1660001b620006c460201b60201c565b90509392505050565b600062000642836000018360001b620007a360201b60201c565b905092915050565b60006200065e8383620007c660201b60201c565b620006b9578260000182908060018154018082558091505060019003906000526020600020016000909190919091505582600001805490508360010160008481526020019081526020016000208190555060019050620006be565b600090505b92915050565b60008084600101600085815260200190815260200160002054905060008114156200076d578460000160405180604001604052808681526020018581525090806001815401808255809150506001900390600052602060002090600202016000909190919091506000820151816000015560208201518160010155505084600001805490508560010160008681526020019081526020016000208190555060019150506200079c565b828560000160018303815481106200078157fe5b90600052602060002090600202016001018190555060009150505b9392505050565b600080836001016000848152602001908152602001600020541415905092915050565b600080836001016000848152602001908152602001600020541415905092915050565b828054600181600116156101000203166002900490600052602060002090601f016020900481019282601f106200082c57805160ff19168380011785556200085d565b828001600101855582156200085d579182015b828111156200085c5782518255916020019190600101906200083f565b5b5090506200086c919062000870565b5090565b6200089591905b808211156200089157600081600090555060010162000877565b5090565b90565b614c5080620008a86000396000f3fe6080604052600436106102875760003560e01c806342842e0e1161015a578063a0c32c8f116100c1578063c7b9cb0b1161007a578063c7b9cb0b14611475578063c87b56dd146114de578063e985e9c514611592578063ec8977721461161b578063f5304d9d14611656578063ff36ed981461168157610287565b8063a0c32c8f1461113e578063a22cb46514611197578063af58948d146111f4578063b75e075014611243578063b88d4fde14611310578063c5f51f731461142257610287565b80636c0360eb116101135780636c0360eb14610e3957806370a0823114610ec957806377386df314610f2e57806380ef82c714610f73578063929c13e314610f9e57806395d89b41146110ae57610287565b806342842e0e14610bfb5780634abda8c814610c765780634f6ccce714610cc9578063508713f014610d185780636352211e14610d6b5780636573c78714610de657610287565b806323b872dd116101fe5780632e9c5c4e116101b75780632e9c5c4e146108e05780632f745c59146109e85780632fe512f014610a5757806332b0f37614610aa65780633573dbd114610ba257806341d30bae14610bf157610287565b806323b872dd146106a3578063242a00871461071e57806326a49e371461077457806327aa8f31146107c35780632831f2f41461083e5780632a4672b21461089157610287565b8063095ea7b311610250578063095ea7b31461050c57806318160ddd14610567578063197d4fc6146105925780631a14e94a146105e1578063216586581461060f578063229fbb561461063a57610287565b8062ad800c1461028c57806301ffc9a71461034057806306fdde03146103b2578063081812fc14610442578063083e24e4146104bd575b600080fd5b34801561029857600080fd5b506102c5600480360360208110156102af57600080fd5b81019080803590602001909291905050506116af565b6040518080602001828103825283818151815260200191508051906020019080838360005b838110156103055780820151818401526020810190506102ea565b50505050905090810190601f1680156103325780820380516001836020036101000a031916815260200191505b509250505060405180910390f35b34801561034c57600080fd5b506103986004803603602081101561036357600080fd5b8101908080357bffffffffffffffffffffffffffffffffffffffffffffffffffffffff1916906020019092919050505061175f565b604051808215151515815260200191505060405180910390f35b3480156103be57600080fd5b506103c76117c6565b6040518080602001828103825283818151815260200191508051906020019080838360005b838110156104075780820151818401526020810190506103ec565b50505050905090810190601f1680156104345780820380516001836020036101000a031916815260200191505b509250505060405180910390f35b34801561044e57600080fd5b5061047b6004803603602081101561046557600080fd5b8101908080359060200190929190505050611868565b604051808273ffffffffffffffffffffffffffffffffffffffff1673ffffffffffffffffffffffffffffffffffffffff16815260200191505060405180910390f35b3480156104c957600080fd5b506104f6600480360360208110156104e057600080fd5b8101908080359060200190929190505050611903565b6040518082815260200191505060405180910390f35b34801561051857600080fd5b506105656004803603604081101561052f57600080fd5b81019080803573ffffffffffffffffffffffffffffffffffffffff1690602001909291908035906020019092919050505061191b565b005b34801561057357600080fd5b5061057c611a5f565b6040518082815260200191505060405180910390f35b34801561059e57600080fd5b506105cb600480360360208110156105b557600080fd5b8101908080359060200190929190505050611a70565b6040518082815260200191505060405180910390f35b61060d600480360360208110156105f757600080fd5b8101908080359060200190929190505050611a88565b005b34801561061b57600080fd5b50610624611bff565b6040518082815260200191505060405180910390f35b34801561064657600080fd5b506106896004803603602081101561065d57600080fd5b81019080803573ffffffffffffffffffffffffffffffffffffffff169060200190929190505050611c09565b604051808215151515815260200191505060405180910390f35b3480156106af57600080fd5b5061071c600480360360608110156106c657600080fd5b81019080803573ffffffffffffffffffffffffffffffffffffffff169060200190929190803573ffffffffffffffffffffffffffffffffffffffff16906020019092919080359060200190929190505050611c29565b005b34801561072a57600080fd5b506107576004803603602081101561074157600080fd5b8101908080359060200190929190505050611c9f565b604051808381526020018281526020019250505060405180910390f35b34801561078057600080fd5b506107ad6004803603602081101561079757600080fd5b8101908080359060200190929190505050611cd3565b6040518082815260200191505060405180910390f35b3480156107cf57600080fd5b506107fc600480360360208110156107e657600080fd5b8101908080359060200190929190505050611ceb565b604051808273ffffffffffffffffffffffffffffffffffffffff1673ffffffffffffffffffffffffffffffffffffffff16815260200191505060405180910390f35b34801561084a57600080fd5b506108776004803603602081101561086157600080fd5b8101908080359060200190929190505050611d1e565b604051808215151515815260200191505060405180910390f35b34801561089d57600080fd5b506108ca600480360360208110156108b457600080fd5b8101908080359060200190929190505050611d3e565b6040518082815260200191505060405180910390f35b3480156108ec57600080fd5b506109e6600480360360a081101561090357600080fd5b8101908080359060200190929190803590602001909291908035151590602001909291908035906020019064010000000081111561094057600080fd5b82018360208201111561095257600080fd5b8035906020019184600183028401116401000000008311171561097457600080fd5b91908080601f016020809104026020016040519081016040528093929190818152602001838380828437600081840152601f19601f820116905080830192505050505050509192919290803573ffffffffffffffffffffffffffffffffffffffff169060200190929190505050611d56565b005b3480156109f457600080fd5b50610a4160048036036040811015610a0b57600080fd5b81019080803573ffffffffffffffffffffffffffffffffffffffff16906020019092919080359060200190929190505050611eb5565b6040518082815260200191505060405180910390f35b348015610a6357600080fd5b50610a9060048036036020811015610a7a57600080fd5b8101908080359060200190929190505050611f10565b6040518082815260200191505060405180910390f35b348015610ab257600080fd5b50610b8c60048036036080811015610ac957600080fd5b81019080803590602001909291908035906020019092919080351515906020019092919080359060200190640100000000811115610b0657600080fd5b820183602082011115610b1857600080fd5b80359060200191846001830284011164010000000083111715610b3a57600080fd5b91908080601f016020809104026020016040519081016040528093929190818152602001838380828437600081840152601f19601f820116905080830192505050505050509192919290505050611f28565b6040518082815260200191505060405180910390f35b348015610bae57600080fd5b50610bdb60048036036020811015610bc557600080fd5b8101908080359060200190929190505050612092565b6040518082815260200191505060405180910390f35b610bf96120af565b005b348015610c0757600080fd5b50610c7460048036036060811015610c1e57600080fd5b81019080803573ffffffffffffffffffffffffffffffffffffffff169060200190929190803573ffffffffffffffffffffffffffffffffffffffff16906020019092919080359060200190929190505050612169565b005b348015610c8257600080fd5b50610caf60048036036020811015610c9957600080fd5b8101908080359060200190929190505050612189565b604051808215151515815260200191505060405180910390f35b348015610cd557600080fd5b50610d0260048036036020811015610cec57600080fd5b81019080803590602001909291905050506121a9565b6040518082815260200191505060405180910390f35b348015610d2457600080fd5b50610d5160048036036020811015610d3b57600080fd5b81019080803590602001909291905050506121cc565b604051808215151515815260200191505060405180910390f35b348015610d7757600080fd5b50610da460048036036020811015610d8e57600080fd5b81019080803590602001909291905050506121ec565b604051808273ffffffffffffffffffffffffffffffffffffffff1673ffffffffffffffffffffffffffffffffffffffff16815260200191505060405180910390f35b348015610df257600080fd5b50610e1f60048036036020811015610e0957600080fd5b8101908080359060200190929190505050612223565b604051808215151515815260200191505060405180910390f35b348015610e4557600080fd5b50610e4e612243565b6040518080602001828103825283818151815260200191508051906020019080838360005b83811015610e8e578082015181840152602081019050610e73565b50505050905090810190601f168015610ebb5780820380516001836020036101000a031916815260200191505b509250505060405180910390f35b348015610ed557600080fd5b50610f1860048036036020811015610eec57600080fd5b81019080803573ffffffffffffffffffffffffffffffffffffffff1690602001909291905050506122e5565b6040518082815260200191505060405180910390f35b348015610f3a57600080fd5b50610f7160048036036040811015610f5157600080fd5b8101908080359060200190929190803590602001909291905050506123ba565b005b348015610f7f57600080fd5b50610f88612402565b6040518082815260200191505060405180910390f35b348015610faa57600080fd5b50611098600480360360c0811015610fc157600080fd5b81019080803590602001909291908035906020019092919080351515906020019092919080359060200190640100000000811115610ffe57600080fd5b82018360208201111561101057600080fd5b8035906020019184600183028401116401000000008311171561103257600080fd5b91908080601f016020809104026020016040519081016040528093929190818152602001838380828437600081840152601f19601f820116905080830192505050505050509192919290803590602001909291908035906020019092919050505061240f565b6040518082815260200191505060405180910390f35b3480156110ba57600080fd5b506110c36127cd565b6040518080602001828103825283818151815260200191508051906020019080838360005b838110156111035780820151818401526020810190506110e8565b50505050905090810190601f1680156111305780820380516001836020036101000a031916815260200191505b509250505060405180910390f35b34801561114a57600080fd5b506111816004803603604081101561116157600080fd5b81019080803590602001909291908035906020019092919050505061286f565b6040518082815260200191505060405180910390f35b3480156111a357600080fd5b506111f2600480360360408110156111ba57600080fd5b81019080803573ffffffffffffffffffffffffffffffffffffffff169060200190929190803515159060200190929190505050612964565b005b34801561120057600080fd5b5061122d6004803603602081101561121757600080fd5b8101908080359060200190929190505050612b1c565b6040518082815260200191505060405180910390f35b34801561124f57600080fd5b5061127c6004803603602081101561126657600080fd5b8101908080359060200190929190505050612b34565b604051808060200185151515158152602001848152602001838152602001828103825286818151815260200191508051906020019080838360005b838110156112d25780820151818401526020810190506112b7565b50505050905090810190601f1680156112ff5780820380516001836020036101000a031916815260200191505b509550505050505060405180910390f35b34801561131c57600080fd5b506114206004803603608081101561133357600080fd5b81019080803573ffffffffffffffffffffffffffffffffffffffff169060200190929190803573ffffffffffffffffffffffffffffffffffffffff169060200190929190803590602001909291908035906020019064010000000081111561139a57600080fd5b8201836020820111156113ac57600080fd5b803590602001918460018302840111640100000000831117156113ce57600080fd5b91908080601f016020809104026020016040519081016040528093929190818152602001838380828437600081840152601f19601f820116905080830192505050505050509192919290505050612c3f565b005b34801561142e57600080fd5b5061145b6004803603602081101561144557600080fd5b8101908080359060200190929190505050612cb7565b604051808215151515815260200191505060405180910390f35b34801561148157600080fd5b506114c46004803603602081101561149857600080fd5b81019080803573ffffffffffffffffffffffffffffffffffffffff169060200190929190505050612ce1565b604051808215151515815260200191505060405180910390f35b3480156114ea57600080fd5b506115176004803603602081101561150157600080fd5b8101908080359060200190929190505050612d37565b6040518080602001828103825283818151815260200191508051906020019080838360005b8381101561155757808201518184015260208101905061153c565b50505050905090810190601f1680156115845780820380516001836020036101000a031916815260200191505b509250505060405180910390f35b34801561159e57600080fd5b50611601600480360360408110156115b557600080fd5b81019080803573ffffffffffffffffffffffffffffffffffffffff169060200190929190803573ffffffffffffffffffffffffffffffffffffffff169060200190929190505050613008565b604051808215151515815260200191505060405180910390f35b34801561162757600080fd5b506116546004803603602081101561163e57600080fd5b810190808035906020019092919050505061309c565b005b34801561166257600080fd5b5061166b613212565b6040518082815260200191505060405180910390f35b6116ad6004803603602081101561169757600080fd5b8101908080359060200190929190505050613218565b005b60136020528060005260406000206000915090508054600181600116156101000203166002900480601f0160208091040260200160405190810160405280929190818152602001828054600181600116156101000203166002900480156117575780601f1061172c57610100808354040283529160200191611757565b820191906000526020600020905b81548152906001019060200180831161173a57829003601f168201915b505050505081565b6000806000837bffffffffffffffffffffffffffffffffffffffffffffffffffffffff19167bffffffffffffffffffffffffffffffffffffffffffffffffffffffff1916815260200190815260200160002060009054906101000a900460ff169050919050565b606060068054600181600116156101000203166002900480601f01602080910402602001604051908101604052809291908181526020018280546001816001161561010002031660029004801561185e5780601f106118335761010080835404028352916020019161185e565b820191906000526020600020905b81548152906001019060200180831161184157829003601f168201915b5050505050905090565b6000611873826133ce565b6118c8576040517f08c379a000000000000000000000000000000000000000000000000000000000815260040180806020018281038252602c815260200180614b1a602c913960400191505060405180910390fd5b6004600083815260200190815260200160002060009054906101000a900473ffffffffffffffffffffffffffffffffffffffff169050919050565b600d6020528060005260406000206000915090505481565b6000611926826121ec565b90508073ffffffffffffffffffffffffffffffffffffffff168373ffffffffffffffffffffffffffffffffffffffff1614156119ad576040517f08c379a0000000000000000000000000000000000000000000000000000000008152600401808060200182810382526021815260200180614bc96021913960400191505060405180910390fd5b8073ffffffffffffffffffffffffffffffffffffffff166119cc6133eb565b73ffffffffffffffffffffffffffffffffffffffff1614806119fb57506119fa816119f56133eb565b613008565b5b611a50576040517f08c379a0000000000000000000000000000000000000000000000000000000008152600401808060200182810382526038815260200180614a6d6038913960400191505060405180910390fd5b611a5a83836133f3565b505050565b6000611a6b60026134ac565b905090565b600c6020528060005260406000206000915090505481565b6010600082815260200190815260200160002060009054906101000a900460ff16611b1b576040517f08c379a000000000000000000000000000000000000000000000000000000000815260040180806020018281038252600c8152602001807f4e6f7420666f722073616c65000000000000000000000000000000000000000081525060200191505060405180910390fd5b600b600082815260200190815260200160002054341015611ba4576040517f08c379a00000000000000000000000000000000000000000000000000000000081526004018080602001828103825260198152602001807f507269636520697320686967686572207468616e20746869730000000000000081525060200191505060405180910390fd5b60006010600083815260200190815260200160002060006101000a81548160ff0219169083151502179055506000600b600083815260200190815260200160002081905550611bfc611bf5826121ec565b33836134c1565b50565b6000612710905090565b600a6020528060005260406000206000915054906101000a900460ff1681565b611c3a611c346133eb565b82613704565b611c8f576040517f08c379a0000000000000000000000000000000000000000000000000000000008152600401808060200182810382526031815260200180614bea6031913960400191505060405180910390fd5b611c9a8383836134c1565b505050565b600080600e6000848152602001908152602001600020549150600f6000848152602001908152602001600020549050915091565b600b6020528060005260406000206000915090505481565b60166020528060005260406000206000915054906101000a900473ffffffffffffffffffffffffffffffffffffffff1681565b60106020528060005260406000206000915054906101000a900460ff1681565b60156020528060005260406000206000915090505481565b611d62816017546137f8565b84600c600060175481526020019081526020016000208190555083600d60006017548152602001908152602001600020819055508260116000601754815260200190815260200160002060006101000a81548160ff021916908315150217905550600160126000601754815260200190815260200160002060006101000a81548160ff021916908315150217905550600060106000601754815260200190815260200160002060006101000a81548160ff021916908315150217905550816013600060175481526020019081526020016000209080519060200190611e48929190614893565b508060166000601754815260200190815260200160002060006101000a81548173ffffffffffffffffffffffffffffffffffffffff021916908373ffffffffffffffffffffffffffffffffffffffff16021790555060016017600082825401925050819055505050505050565b6000611f0882600160008673ffffffffffffffffffffffffffffffffffffffff1673ffffffffffffffffffffffffffffffffffffffff1681526020019081526020016000206139ec90919063ffffffff16565b905092915050565b600e6020528060005260406000206000915090505481565b6000611f36336017546137f8565b84600c600060175481526020019081526020016000208190555083600d60006017548152602001908152602001600020819055508260116000601754815260200190815260200160002060006101000a81548160ff021916908315150217905550600160126000601754815260200190815260200160002060006101000a81548160ff021916908315150217905550600060106000601754815260200190815260200160002060006101000a81548160ff02191690831515021790555081601360006017548152602001908152602001600020908051906020019061201c929190614893565b503360166000601754815260200190815260200160002060006101000a81548173ffffffffffffffffffffffffffffffffffffffff021916908373ffffffffffffffffffffffffffffffffffffffff16021790555060016017600082825401925050819055506001601754039050949350505050565b6000600b6000838152602001908152602001600020549050919050565b6120b7611bff565b34101561210f576040517f08c379a00000000000000000000000000000000000000000000000000000000081526004018080602001828103825260228152602001806149a36022913960400191505060405180910390fd5b6001600a60003373ffffffffffffffffffffffffffffffffffffffff1673ffffffffffffffffffffffffffffffffffffffff16815260200190815260200160002060006101000a81548160ff021916908315150217905550565b61218483838360405180602001604052806000815250612c3f565b505050565b60146020528060005260406000206000915054906101000a900460ff1681565b6000806121c0836002613a0690919063ffffffff16565b50905080915050919050565b60116020528060005260406000206000915054906101000a900460ff1681565b600061221c82604051806060016040528060298152602001614acf602991396002613a359092919063ffffffff16565b9050919050565b60126020528060005260406000206000915054906101000a900460ff1681565b606060098054600181600116156101000203166002900480601f0160208091040260200160405190810160405280929190818152602001828054600181600116156101000203166002900480156122db5780601f106122b0576101008083540402835291602001916122db565b820191906000526020600020905b8154815290600101906020018083116122be57829003601f168201915b5050505050905090565b60008073ffffffffffffffffffffffffffffffffffffffff168273ffffffffffffffffffffffffffffffffffffffff16141561236c576040517f08c379a000000000000000000000000000000000000000000000000000000000815260040180806020018281038252602a815260200180614aa5602a913960400191505060405180910390fd5b6123b3600160008473ffffffffffffffffffffffffffffffffffffffff1673ffffffffffffffffffffffffffffffffffffffff168152602001908152602001600020613a54565b9050919050565b60016010600084815260200190815260200160002060006101000a81548160ff02191690831515021790555080600b6000848152602001908152602001600020819055505050565b6000600160175403905090565b60003373ffffffffffffffffffffffffffffffffffffffff166016600085815260200190815260200160002060009054906101000a900473ffffffffffffffffffffffffffffffffffffffff1673ffffffffffffffffffffffffffffffffffffffff161480156124dd57503373ffffffffffffffffffffffffffffffffffffffff166016600084815260200190815260200160002060009054906101000a900473ffffffffffffffffffffffffffffffffffffffff1673ffffffffffffffffffffffffffffffffffffffff16145b612532576040517f08c379a000000000000000000000000000000000000000000000000000000000815260040180806020018281038252602b815260200180614b6f602b913960400191505060405180910390fd5b61253e336017546137f8565b86600c600060175481526020019081526020016000208190555085600d60006017548152602001908152602001600020819055508460116000601754815260200190815260200160002060006101000a81548160ff021916908315150217905550600160126000601754815260200190815260200160002060006101000a81548160ff021916908315150217905550600060106000601754815260200190815260200160002060006101000a81548160ff021916908315150217905550836013600060175481526020019081526020016000209080519060200190612624929190614893565b5082600e600060175481526020019081526020016000208190555081600f6000601754815260200190815260200160002081905550600060146000601754815260200190815260200160002060006101000a81548160ff0219169083151502179055506000601560006017548152602001908152602001600020819055503360166000601754815260200190815260200160002060006101000a81548173ffffffffffffffffffffffffffffffffffffffff021916908373ffffffffffffffffffffffffffffffffffffffff1602179055506126ff836121ec565b6016600085815260200190815260200160002060006101000a81548173ffffffffffffffffffffffffffffffffffffffff021916908373ffffffffffffffffffffffffffffffffffffffff160217905550612759826121ec565b6016600084815260200190815260200160002060006101000a81548173ffffffffffffffffffffffffffffffffffffffff021916908373ffffffffffffffffffffffffffffffffffffffff160217905550600160176000828254019250508190555060016017540390509695505050505050565b606060078054600181600116156101000203166002900480601f0160208091040260200160405190810160405280929190818152602001828054600181600116156101000203166002900480156128655780601f1061283a57610100808354040283529160200191612865565b820191906000526020600020905b81548152906001019060200180831161284857829003601f168201915b5050505050905090565b600061287a836121ec565b73ffffffffffffffffffffffffffffffffffffffff163373ffffffffffffffffffffffffffffffffffffffff161461291a576040517f08c379a000000000000000000000000000000000000000000000000000000000815260040180806020018281038252600f8152602001807f4e2765737420706173206f776e6572000000000000000000000000000000000081525060200191505060405180910390fd5b60016014600085815260200190815260200160002060006101000a81548160ff02191690831515021790555081601560008581526020019081526020016000208190555092915050565b61296c6133eb565b73ffffffffffffffffffffffffffffffffffffffff168273ffffffffffffffffffffffffffffffffffffffff161415612a0d576040517f08c379a00000000000000000000000000000000000000000000000000000000081526004018080602001828103825260198152602001807f4552433732313a20617070726f766520746f2063616c6c65720000000000000081525060200191505060405180910390fd5b8060056000612a1a6133eb565b73ffffffffffffffffffffffffffffffffffffffff1673ffffffffffffffffffffffffffffffffffffffff16815260200190815260200160002060008473ffffffffffffffffffffffffffffffffffffffff1673ffffffffffffffffffffffffffffffffffffffff16815260200190815260200160002060006101000a81548160ff0219169083151502179055508173ffffffffffffffffffffffffffffffffffffffff16612ac76133eb565b73ffffffffffffffffffffffffffffffffffffffff167f17307eab39ab6107e8899845ad3d59bd9653f200f220920489ca2b5937696c3183604051808215151515815260200191505060405180910390a35050565b600f6020528060005260406000206000915090505481565b60606000806000601360008681526020019081526020016000208054600181600116156101000203166002900480601f016020809104026020016040519081016040528092919081815260200182805460018160011615610100020316600290048015612be25780601f10612bb757610100808354040283529160200191612be2565b820191906000526020600020905b815481529060010190602001808311612bc557829003601f168201915b505050505093506011600086815260200190815260200160002060009054906101000a900460ff169250600d6000868152602001908152602001600020549150600c60008681526020019081526020016000205490509193509193565b612c50612c4a6133eb565b83613704565b612ca5576040517f08c379a0000000000000000000000000000000000000000000000000000000008152600401808060200182810382526031815260200180614bea6031913960400191505060405180910390fd5b612cb184848484613a69565b50505050565b60006010600083815260200190815260200160002060009054906101000a900460ff169050919050565b6000600a60008373ffffffffffffffffffffffffffffffffffffffff1673ffffffffffffffffffffffffffffffffffffffff16815260200190815260200160002060009054906101000a900460ff169050919050565b6060612d42826133ce565b612d97576040517f08c379a000000000000000000000000000000000000000000000000000000000815260040180806020018281038252602f815260200180614b9a602f913960400191505060405180910390fd5b6060600860008481526020019081526020016000208054600181600116156101000203166002900480601f016020809104026020016040519081016040528092919081815260200182805460018160011615610100020316600290048015612e405780601f10612e1557610100808354040283529160200191612e40565b820191906000526020600020905b815481529060010190602001808311612e2357829003601f168201915b505050505090506060612e51612243565b9050600081511415612e67578192505050613003565b600082511115612f385780826040516020018083805190602001908083835b60208310612ea95780518252602082019150602081019050602083039250612e86565b6001836020036101000a03801982511681845116808217855250505050505090500182805190602001908083835b60208310612efa5780518252602082019150602081019050602083039250612ed7565b6001836020036101000a0380198251168184511680821785525050505050509050019250505060405160208183030381529060405292505050613003565b80612f4285613adb565b6040516020018083805190602001908083835b60208310612f785780518252602082019150602081019050602083039250612f55565b6001836020036101000a03801982511681845116808217855250505050505090500182805190602001908083835b60208310612fc95780518252602082019150602081019050602083039250612fa6565b6001836020036101000a03801982511681845116808217855250505050505090500192505050604051602081830303815290604052925050505b919050565b6000600560008473ffffffffffffffffffffffffffffffffffffffff1673ffffffffffffffffffffffffffffffffffffffff16815260200190815260200160002060008373ffffffffffffffffffffffffffffffffffffffff1673ffffffffffffffffffffffffffffffffffffffff16815260200190815260200160002060009054906101000a900460ff16905092915050565b6130a5816121ec565b73ffffffffffffffffffffffffffffffffffffffff163373ffffffffffffffffffffffffffffffffffffffff1614613145576040517f08c379a000000000000000000000000000000000000000000000000000000000815260040180806020018281038252600f8152602001807f4e6f7420796f757220616e696d616c000000000000000000000000000000000081525060200191505060405180910390fd5b60006012600083815260200190815260200160002060006101000a81548160ff0219169083151502179055506000600c6000838152602001908152602001600020819055506000600d60008381526020019081526020016000208190555060006011600083815260200190815260200160002060006101000a81548160ff02191690831515021790555060405180602001604052806000815250601360008381526020019081526020016000209080519060200190613205929190614893565b5061320f81613c0b565b50565b60175481565b6014600082815260200190815260200160002060009054906101000a900460ff166132ab576040517f08c379a000000000000000000000000000000000000000000000000000000000815260040180806020018281038252600f8152602001807f43616e277420726570726f64756365000000000000000000000000000000000081525060200191505060405180910390fd5b600b600082815260200190815260200160002054341015613334576040517f08c379a00000000000000000000000000000000000000000000000000000000081526004018080602001828103825260198152602001807f507269636520697320686967686572207468616e20746869730000000000000081525060200191505060405180910390fd5b336016600083815260200190815260200160002060006101000a81548173ffffffffffffffffffffffffffffffffffffffff021916908373ffffffffffffffffffffffffffffffffffffffff16021790555060006014600083815260200190815260200160002060006101000a81548160ff0219169083151502179055506000601560008381526020019081526020016000208190555050565b60006133e4826002613d4590919063ffffffff16565b9050919050565b600033905090565b816004600083815260200190815260200160002060006101000a81548173ffffffffffffffffffffffffffffffffffffffff021916908373ffffffffffffffffffffffffffffffffffffffff160217905550808273ffffffffffffffffffffffffffffffffffffffff16613466836121ec565b73ffffffffffffffffffffffffffffffffffffffff167f8c5be1e5ebec7d5bd14f71427d1e84f3dd0314c0f7b2291e5b200ac8c7c3b92560405160405180910390a45050565b60006134ba82600001613d5f565b9050919050565b8273ffffffffffffffffffffffffffffffffffffffff166134e1826121ec565b73ffffffffffffffffffffffffffffffffffffffff161461354d576040517f08c379a0000000000000000000000000000000000000000000000000000000008152600401808060200182810382526029815260200180614b466029913960400191505060405180910390fd5b600073ffffffffffffffffffffffffffffffffffffffff168273ffffffffffffffffffffffffffffffffffffffff1614156135d3576040517f08c379a00000000000000000000000000000000000000000000000000000000081526004018080602001828103825260248152602001806149f76024913960400191505060405180910390fd5b6135de838383613d70565b6135e96000826133f3565b61363a81600160008673ffffffffffffffffffffffffffffffffffffffff1673ffffffffffffffffffffffffffffffffffffffff168152602001908152602001600020613d7590919063ffffffff16565b5061368c81600160008573ffffffffffffffffffffffffffffffffffffffff1673ffffffffffffffffffffffffffffffffffffffff168152602001908152602001600020613d8f90919063ffffffff16565b506136a381836002613da99092919063ffffffff16565b50808273ffffffffffffffffffffffffffffffffffffffff168473ffffffffffffffffffffffffffffffffffffffff167fddf252ad1be2c89b69c2b068fc378daa952ba7f163c4a11628f55a4df523b3ef60405160405180910390a4505050565b600061370f826133ce565b613764576040517f08c379a000000000000000000000000000000000000000000000000000000000815260040180806020018281038252602c815260200180614a41602c913960400191505060405180910390fd5b600061376f836121ec565b90508073ffffffffffffffffffffffffffffffffffffffff168473ffffffffffffffffffffffffffffffffffffffff1614806137de57508373ffffffffffffffffffffffffffffffffffffffff166137c684611868565b73ffffffffffffffffffffffffffffffffffffffff16145b806137ef57506137ee8185613008565b5b91505092915050565b600073ffffffffffffffffffffffffffffffffffffffff168273ffffffffffffffffffffffffffffffffffffffff16141561389b576040517f08c379a00000000000000000000000000000000000000000000000000000000081526004018080602001828103825260208152602001807f4552433732313a206d696e7420746f20746865207a65726f206164647265737381525060200191505060405180910390fd5b6138a4816133ce565b15613917576040517f08c379a000000000000000000000000000000000000000000000000000000000815260040180806020018281038252601c8152602001807f4552433732313a20746f6b656e20616c7265616479206d696e7465640000000081525060200191505060405180910390fd5b61392360008383613d70565b61397481600160008573ffffffffffffffffffffffffffffffffffffffff1673ffffffffffffffffffffffffffffffffffffffff168152602001908152602001600020613d8f90919063ffffffff16565b5061398b81836002613da99092919063ffffffff16565b50808273ffffffffffffffffffffffffffffffffffffffff16600073ffffffffffffffffffffffffffffffffffffffff167fddf252ad1be2c89b69c2b068fc378daa952ba7f163c4a11628f55a4df523b3ef60405160405180910390a45050565b60006139fb8360000183613dde565b60001c905092915050565b600080600080613a198660000186613e61565b915091508160001c8160001c8090509350935050509250929050565b6000613a48846000018460001b84613efa565b60001c90509392505050565b6000613a6282600001613ff0565b9050919050565b613a748484846134c1565b613a8084848484614001565b613ad5576040517f08c379a00000000000000000000000000000000000000000000000000000000081526004018080602001828103825260328152602001806149c56032913960400191505060405180910390fd5b50505050565b60606000821415613b23576040518060400160405280600181526020017f30000000000000000000000000000000000000000000000000000000000000008152509050613c06565b600082905060005b60008214613b4d578080600101915050600a8281613b4557fe5b049150613b2b565b6060816040519080825280601f01601f191660200182016040528015613b825781602001600182028038833980820191505090505b50905060006001830390508593505b60008414613bfe57600a8481613ba357fe5b0660300160f81b82828060019003935081518110613bbd57fe5b60200101907effffffffffffffffffffffffffffffffffffffffffffffffffffffffffffff1916908160001a905350600a8481613bf657fe5b049350613b91565b819450505050505b919050565b6000613c16826121ec565b9050613c2481600084613d70565b613c2f6000836133f3565b60006008600084815260200190815260200160002080546001816001161561010002031660029004905014613c7e57600860008381526020019081526020016000206000613c7d9190614913565b5b613ccf82600160008473ffffffffffffffffffffffffffffffffffffffff1673ffffffffffffffffffffffffffffffffffffffff168152602001908152602001600020613d7590919063ffffffff16565b50613ce482600261424690919063ffffffff16565b5081600073ffffffffffffffffffffffffffffffffffffffff168273ffffffffffffffffffffffffffffffffffffffff167fddf252ad1be2c89b69c2b068fc378daa952ba7f163c4a11628f55a4df523b3ef60405160405180910390a45050565b6000613d57836000018360001b614260565b905092915050565b600081600001805490509050919050565b505050565b6000613d87836000018360001b614283565b905092915050565b6000613da1836000018360001b61436b565b905092915050565b6000613dd5846000018460001b8473ffffffffffffffffffffffffffffffffffffffff1660001b6143db565b90509392505050565b600081836000018054905011613e3f576040517f08c379a00000000000000000000000000000000000000000000000000000000081526004018080602001828103825260228152602001806149816022913960400191505060405180910390fd5b826000018281548110613e4e57fe5b9060005260206000200154905092915050565b60008082846000018054905011613ec3576040517f08c379a0000000000000000000000000000000000000000000000000000000008152600401808060200182810382526022815260200180614af86022913960400191505060405180910390fd5b6000846000018481548110613ed457fe5b906000526020600020906002020190508060000154816001015492509250509250929050565b60008084600101600085815260200190815260200160002054905060008114158390613fc1576040517f08c379a00000000000000000000000000000000000000000000000000000000081526004018080602001828103825283818151815260200191508051906020019080838360005b83811015613f86578082015181840152602081019050613f6b565b50505050905090810190601f168015613fb35780820380516001836020036101000a031916815260200191505b509250505060405180910390fd5b50846000016001820381548110613fd457fe5b9060005260206000209060020201600101549150509392505050565b600081600001805490509050919050565b60006140228473ffffffffffffffffffffffffffffffffffffffff166144b7565b61402f576001905061423e565b60606141c563150b7a0260e01b6140446133eb565b888787604051602401808573ffffffffffffffffffffffffffffffffffffffff1673ffffffffffffffffffffffffffffffffffffffff1681526020018473ffffffffffffffffffffffffffffffffffffffff1673ffffffffffffffffffffffffffffffffffffffff16815260200183815260200180602001828103825283818151815260200191508051906020019080838360005b838110156140f45780820151818401526020810190506140d9565b50505050905090810190601f1680156141215780820380516001836020036101000a031916815260200191505b5095505050505050604051602081830303815290604052907bffffffffffffffffffffffffffffffffffffffffffffffffffffffff19166020820180517bffffffffffffffffffffffffffffffffffffffffffffffffffffffff83818316178352505050506040518060600160405280603281526020016149c5603291398773ffffffffffffffffffffffffffffffffffffffff166144ca9092919063ffffffff16565b905060008180602001905160208110156141de57600080fd5b8101908080519060200190929190505050905063150b7a0260e01b7bffffffffffffffffffffffffffffffffffffffffffffffffffffffff1916817bffffffffffffffffffffffffffffffffffffffffffffffffffffffff191614925050505b949350505050565b6000614258836000018360001b6144e2565b905092915050565b600080836001016000848152602001908152602001600020541415905092915050565b6000808360010160008481526020019081526020016000205490506000811461435f57600060018203905060006001866000018054905003905060008660000182815481106142ce57fe5b90600052602060002001549050808760000184815481106142eb57fe5b906000526020600020018190555060018301876001016000838152602001908152602001600020819055508660000180548061432357fe5b60019003818190600052602060002001600090559055866001016000878152602001908152602001600020600090556001945050505050614365565b60009150505b92915050565b600061437783836145fb565b6143d05782600001829080600181540180825580915050600190039060005260206000200160009091909190915055826000018054905083600101600084815260200190815260200160002081905550600190506143d5565b600090505b92915050565b6000808460010160008581526020019081526020016000205490506000811415614482578460000160405180604001604052808681526020018581525090806001815401808255809150506001900390600052602060002090600202016000909190919091506000820151816000015560208201518160010155505084600001805490508560010160008681526020019081526020016000208190555060019150506144b0565b8285600001600183038154811061449557fe5b90600052602060002090600202016001018190555060009150505b9392505050565b600080823b905060008111915050919050565b60606144d9848460008561461e565b90509392505050565b600080836001016000848152602001908152602001600020549050600081146145ef576000600182039050600060018660000180549050039050600086600001828154811061452d57fe5b906000526020600020906002020190508087600001848154811061454d57fe5b90600052602060002090600202016000820154816000015560018201548160010155905050600183018760010160008360000154815260200190815260200160002081905550866000018054806145a057fe5b60019003818190600052602060002090600202016000808201600090556001820160009055505090558660010160008781526020019081526020016000206000905560019450505050506145f5565b60009150505b92915050565b600080836001016000848152602001908152602001600020541415905092915050565b606082471015614679576040517f08c379a0000000000000000000000000000000000000000000000000000000008152600401808060200182810382526026815260200180614a1b6026913960400191505060405180910390fd5b614682856144b7565b6146f4576040517f08c379a000000000000000000000000000000000000000000000000000000000815260040180806020018281038252601d8152602001807f416464726573733a2063616c6c20746f206e6f6e2d636f6e747261637400000081525060200191505060405180910390fd5b600060608673ffffffffffffffffffffffffffffffffffffffff1685876040518082805190602001908083835b602083106147445780518252602082019150602081019050602083039250614721565b6001836020036101000a03801982511681845116808217855250505050505090500191505060006040518083038185875af1925050503d80600081146147a6576040519150601f19603f3d011682016040523d82523d6000602084013e6147ab565b606091505b50915091506147bb8282866147c7565b92505050949350505050565b606083156147d75782905061488c565b6000835111156147ea5782518084602001fd5b816040517f08c379a00000000000000000000000000000000000000000000000000000000081526004018080602001828103825283818151815260200191508051906020019080838360005b83811015614851578082015181840152602081019050614836565b50505050905090810190601f16801561487e5780820380516001836020036101000a031916815260200191505b509250505060405180910390fd5b9392505050565b828054600181600116156101000203166002900490600052602060002090601f016020900481019282601f106148d457805160ff1916838001178555614902565b82800160010185558215614902579182015b828111156149015782518255916020019190600101906148e6565b5b50905061490f919061495b565b5090565b50805460018160011615610100020316600290046000825580601f106149395750614958565b601f016020900490600052602060002090810190614957919061495b565b5b50565b61497d91905b80821115614979576000816000905550600101614961565b5090565b9056fe456e756d657261626c655365743a20696e646578206f7574206f6620626f756e6473526567697374657220707269636520697320686967686572207468616e20746869734552433732313a207472616e7366657220746f206e6f6e20455243373231526563656976657220696d706c656d656e7465724552433732313a207472616e7366657220746f20746865207a65726f2061646472657373416464726573733a20696e73756666696369656e742062616c616e636520666f722063616c6c4552433732313a206f70657261746f7220717565727920666f72206e6f6e6578697374656e7420746f6b656e4552433732313a20617070726f76652063616c6c6572206973206e6f74206f776e6572206e6f7220617070726f76656420666f7220616c6c4552433732313a2062616c616e636520717565727920666f7220746865207a65726f20616464726573734552433732313a206f776e657220717565727920666f72206e6f6e6578697374656e7420746f6b656e456e756d657261626c654d61703a20696e646578206f7574206f6620626f756e64734552433732313a20617070726f76656420717565727920666f72206e6f6e6578697374656e7420746f6b656e4552433732313a207472616e73666572206f6620746f6b656e2074686174206973206e6f74206f776e53656e646572206e6f74206175746f72697a656420666f72206f6e65206f662074686520706172656e74734552433732314d657461646174613a2055524920717565727920666f72206e6f6e6578697374656e7420746f6b656e4552433732313a20617070726f76616c20746f2063757272656e74206f776e65724552433732313a207472616e736665722063616c6c6572206973206e6f74206f776e6572206e6f7220617070726f766564a264697066735822122042a5a0caa2551a65678afd0fb7c28841a77561dbbf12a70bd260afe459c8ef4a64736f6c63430006020033",
  "source": "pragma solidity ^0.6.0;\nimport \"@openzeppelin/contracts/token/ERC721/ERC721.sol\";\n\n\ncontract ExerciceSolution is ERC721\n{\n\t// breeders\n\t// address[] breeders;\n\n\tmapping(address => bool) public breeders;\n\tmapping(uint => uint256) public price;\n\tmapping(uint => uint) public sex;\n\tmapping(uint => uint) public legs;\n\tmapping(uint => uint) public parent1;\n\tmapping(uint => uint) public parent2;\n\tmapping(uint => bool) public forSale;\n\tmapping(uint => bool) public wings;\n\tmapping(uint => bool) public alive;\n\tmapping(uint => string) public name;\n\tmapping(uint => bool) public canReproduce;\n\tmapping(uint => uint256) public reproductionPrice;\n\tmapping(uint => address) public authorizedBreederToReproduce;\n\n\tuint public animalCounter = 2;\n\n\tconstructor (string memory name_, string memory symbol_, address to_, uint256 tokenid_) public ERC721(name_, symbol_){\n\t\t_mint(to_, tokenid_);\n\t}\n\n\tfunction isBreeder(address account) public returns (bool){\n\t\treturn breeders[account];\n\t}\n\n\tfunction registrationPrice() public view returns (uint256){\n\t\treturn 10000;\n\t}\n\n\tfunction registerMeAsBreeder() public payable {\n\t\trequire(msg.value >= registrationPrice(), \"Register price is higher than this\");\n\t\tbreeders[msg.sender] = true;\n\t}\n\n\tfunction declareAnimalTo(uint _sex, uint _legs, bool _wings, string memory _name, address _to) public{\n\t\t_mint(_to, animalCounter);\n\t\tsex[animalCounter] = _sex;\n\t\tlegs[animalCounter] = _legs;\n\t\twings[animalCounter] = _wings;\n\t\talive[animalCounter] = true;\n\t\tforSale[animalCounter] = false;\n\t\tname[animalCounter] = _name;\n\t\tauthorizedBreederToReproduce[animalCounter] = _to;\n\n\t\tanimalCounter += 1;\n\t}\n\n\tfunction declareAnimal(uint _sex, uint _legs, bool _wings, string memory _name) public returns (uint256){\n\t\t_mint(msg.sender, animalCounter);\n\t\tsex[animalCounter] = _sex;\n\t\tlegs[animalCounter] = _legs;\n\t\twings[animalCounter] = _wings;\n\t\talive[animalCounter] = true;\n\t\tforSale[animalCounter] = false;\n\t\tname[animalCounter] = _name;\n\t\tauthorizedBreederToReproduce[animalCounter] = msg.sender;\n\n\t\tanimalCounter += 1;\n\t\treturn animalCounter - 1;\n\t}\n\n\tfunction getLastAnimalNumber() public view returns (uint256){\n\t\treturn animalCounter - 1;\n\t}\n\n\n\t// function declareAnimal(uint _sex, uint _legs, bool _wings, string calldata _name) public returns (uint256){\n\t// \treturn declareAnimalTo(_sex, _legs, _wings, _name, msg.sender);\n\t// }\n\n\tfunction getAnimalCharacteristics(uint animalNumber) public view returns (string memory _name, bool _wings, uint _legs, uint _sex){\n\t\t_name = name[animalNumber];\n\t\t_wings = wings[animalNumber];\n\t\t_legs = legs[animalNumber];\n\t\t_sex = sex[animalNumber];\n\t}\n\n\tfunction declareDeadAnimal(uint animalNumber) public{\n\t\trequire(msg.sender == ownerOf(animalNumber), \"Not your animal\");\n\t\talive[animalNumber] = false;\n\t\tsex[animalNumber] = 0;\n\t\tlegs[animalNumber] = 0;\n\t\twings[animalNumber] = false;\n\t\tname[animalNumber] = \"\";\n\t\t_burn(animalNumber);\n\t}\n\n\tfunction isAnimalForSale(uint animalNumber) public view returns (bool){\n\t\treturn forSale[animalNumber];\n\t}\n\n\tfunction animalPrice(uint animalNumber) public view returns (uint256){\n\t\treturn price[animalNumber];\n\t}\n\n\tfunction buyAnimal(uint animalNumber) public payable{\n\t\trequire(forSale[animalNumber], \"Not for sale\");\n\t\trequire(msg.value >= price[animalNumber], \"Price is higher than this\");\n\t\tforSale[animalNumber] = false;\n\t\tprice[animalNumber] = 0;\n\t\t_transfer(ownerOf(animalNumber), msg.sender, animalNumber);\n\t}\n\n\tfunction offerForSale(uint animalNumber, uint _price) public{\n\t\tforSale[animalNumber] = true;\n\t\tprice[animalNumber] = _price;\n\t}\n\n\n\t// Reproduction functions\n\tfunction declareAnimalWithParents(uint _sex, uint _legs, bool _wings, string memory _name, uint _parent1, uint _parent2) public returns (uint256){\n\t\trequire(authorizedBreederToReproduce[_parent1] == msg.sender && authorizedBreederToReproduce[_parent2] == msg.sender, \"Sender not autorized for one of the parents\");\n\t\t_mint(msg.sender, animalCounter);\n\t\tsex[animalCounter] = _sex;\n\t\tlegs[animalCounter] = _legs;\n\t\twings[animalCounter] = _wings;\n\t\talive[animalCounter] = true;\n\t\tforSale[animalCounter] = false;\n\t\tname[animalCounter] = _name;\n\t\tparent1[animalCounter] = _parent1;\n\t\tparent2[animalCounter] = _parent2;\n\t\tcanReproduce[animalCounter] = false;\n\t\treproductionPrice[animalCounter] = 0;\n\t\tauthorizedBreederToReproduce[animalCounter] = msg.sender;\n\t\tauthorizedBreederToReproduce[_parent1] = ownerOf(_parent1);\n\t\tauthorizedBreederToReproduce[_parent2] = ownerOf(_parent2);\n\n\t\tanimalCounter += 1;\n\t\treturn animalCounter - 1;\n\n\t}\n\n\t// function declareAnimalWithParentsTo(uint _sex, uint _legs, bool _wings, string memory _name, uint _parent1, uint _parent2, address _to) public returns (uint256){\n\t// \trequire(authorizedBreederToReproduce[_parent1] == msg.sender && authorizedBreederToReproduce[_parent2] == msg.sender, \"One of the parents is not available to reproduce\");\n\t// \t_mint(_to, animalCounter);\n\t// \tsex[animalCounter] = _sex;\n\t// \tlegs[animalCounter] = _legs;\n\t// \twings[animalCounter] = _wings;\n\t// \talive[animalCounter] = true;\n\t// \tforSale[animalCounter] = false;\n\t// \tname[animalCounter] = _name;\n\t// \tparent1[animalCounter] = _parent1;\n\t// \tparent2[animalCounter] = _parent2;\n\t// \tcanReproduce[animalCounter] = false;\n\t// \treproductionPrice[animalCounter] = 0;\n\t// \tauthorizedBreederToReproduce[animalCounter] = msg.sender;\n\t// \tauthorizedBreederToReproduce[_parent1] = ownerOf(_parent1);\n\t// \tauthorizedBreederToReproduce[_parent2] = ownerOf(_parent2);\n\n\t// \tanimalCounter += 1;\n\t// \treturn animalCounter - 1;\n\n\t// }\n\n\tfunction getParents(uint animalNumber) public view returns (uint256 p1, uint256 p2){\n\t\tp1 = parent1[animalNumber];\n\t\tp2 = parent2[animalNumber];\n\t}\n\n\tfunction offerForReproduction(uint animalNumber, uint256 priceOfReproduction) public returns (uint256){\n\t\trequire(msg.sender == ownerOf(animalNumber), \"N'est pas owner\");\n\t\tcanReproduce[animalNumber] = true;\n\t\treproductionPrice[animalNumber] = priceOfReproduction;\n\t}\n\n\tfunction payForReproduction(uint animalNumber) public payable{\n\t\trequire(canReproduce[animalNumber], \"Can't reproduce\");\n\t\trequire(msg.value >= price[animalNumber], \"Price is higher than this\");\n\t\tauthorizedBreederToReproduce[animalNumber] = msg.sender; \n\t\tcanReproduce[animalNumber] = false;\n\t\treproductionPrice[animalNumber] = 0;\n\t}\n}\n",
  "sourcePath": "C:\\Users\\volta\\Desktop\\Cours\\erc721\\erc721-101\\contracts\\ExerciceSolution.sol",
  "compiler": {
    "name": "solc",
    "version": "0.6.2+commit.bacdbe57.Emscripten.clang"
  },
  "schemaVersion": "3.4.3",
  "updatedAt": "2021-12-10T13:29:32.056Z",
  "networkType": "ethereum",
  "devdoc": {
    "methods": {
      "approve(address,uint256)": {
        "details": "See {IERC721-approve}."
      },
      "balanceOf(address)": {
        "details": "See {IERC721-balanceOf}."
      },
      "baseURI()": {
        "details": "Returns the base URI set via {_setBaseURI}. This will be automatically added as a prefix in {tokenURI} to each token's URI, or to the token ID if no specific URI is set for that token ID."
      },
      "getApproved(uint256)": {
        "details": "See {IERC721-getApproved}."
      },
      "isApprovedForAll(address,address)": {
        "details": "See {IERC721-isApprovedForAll}."
      },
      "name()": {
        "details": "See {IERC721Metadata-name}."
      },
      "ownerOf(uint256)": {
        "details": "See {IERC721-ownerOf}."
      },
      "safeTransferFrom(address,address,uint256)": {
        "details": "See {IERC721-safeTransferFrom}."
      },
      "safeTransferFrom(address,address,uint256,bytes)": {
        "details": "See {IERC721-safeTransferFrom}."
      },
      "setApprovalForAll(address,bool)": {
        "details": "See {IERC721-setApprovalForAll}."
      },
      "supportsInterface(bytes4)": {
        "details": "See {IERC165-supportsInterface}.     * Time complexity O(1), guaranteed to always use less than 30 000 gas."
      },
      "symbol()": {
        "details": "See {IERC721Metadata-symbol}."
      },
      "tokenByIndex(uint256)": {
        "details": "See {IERC721Enumerable-tokenByIndex}."
      },
      "tokenOfOwnerByIndex(address,uint256)": {
        "details": "See {IERC721Enumerable-tokenOfOwnerByIndex}."
      },
      "tokenURI(uint256)": {
        "details": "See {IERC721Metadata-tokenURI}."
      },
      "totalSupply()": {
        "details": "See {IERC721Enumerable-totalSupply}."
      },
      "transferFrom(address,address,uint256)": {
        "details": "See {IERC721-transferFrom}."
      }
    }
  },
  "userdoc": {
    "methods": {}
  }
}